{"abi":[{"type":"constructor","inputs":[{"name":"_creatorId","type":"uint256","internalType":"uint256"},{"name":"_creatorWallet","type":"address","internalType":"address"},{"name":"_tier","type":"uint8","internalType":"uint8"},{"name":"_basePrice","type":"uint256","internalType":"uint256"},{"name":"_kScaled","type":"uint256","internalType":"uint256"},{"name":"_usdcAddress","type":"address","internalType":"address"},{"name":"_oracleAddress","type":"address","internalType":"address"},{"name":"_treasuryAddress","type":"address","internalType":"address"},{"name":"_factoryAddress","type":"address","internalType":"address"}],"stateMutability":"nonpayable"},{"type":"function","name":"aiModifierBps","inputs":[],"outputs":[{"name":"","type":"uint256","internalType":"uint256"}],"stateMutability":"view"},{"type":"function","name":"balanceOf","inputs":[{"name":"account","type":"address","internalType":"address"},{"name":"id","type":"uint256","internalType":"uint256"}],"outputs":[{"name":"","type":"uint256","internalType":"uint256"}],"stateMutability":"view"},{"type":"function","name":"balanceOfBatch","inputs":[{"name":"accounts","type":"address[]","internalType":"address[]"},{"name":"ids","type":"uint256[]","internalType":"uint256[]"}],"outputs":[{"name":"","type":"uint256[]","internalType":"uint256[]"}],"stateMutability":"view"},{"type":"function","name":"basePrice","inputs":[],"outputs":[{"name":"","type":"uint256","internalType":"uint256"}],"stateMutability":"view"},{"type":"function","name":"buyPass","inputs":[{"name":"amount","type":"uint256","internalType":"uint256"}],"outputs":[],"stateMutability":"nonpayable"},{"type":"function","name":"closeSession","inputs":[],"outputs":[],"stateMutability":"nonpayable"},{"type":"function","name":"creatorFeeBalance","inputs":[],"outputs":[{"name":"","type":"uint256","internalType":"uint256"}],"stateMutability":"view"},{"type":"function","name":"creatorId","inputs":[],"outputs":[{"name":"","type":"uint256","internalType":"uint256"}],"stateMutability":"view"},{"type":"function","name":"creatorWallet","inputs":[],"outputs":[{"name":"","type":"address","internalType":"address"}],"stateMutability":"view"},{"type":"function","name":"creatorWithdraw","inputs":[],"outputs":[],"stateMutability":"nonpayable"},{"type":"function","name":"currentSupply","inputs":[],"outputs":[{"name":"","type":"uint256","internalType":"uint256"}],"stateMutability":"view"},{"type":"function","name":"factoryAddress","inputs":[],"outputs":[{"name":"","type":"address","internalType":"address"}],"stateMutability":"view"},{"type":"function","name":"getBuyQuote","inputs":[{"name":"amount","type":"uint256","internalType":"uint256"}],"outputs":[{"name":"totalCost","type":"uint256","internalType":"uint256"},{"name":"fee","type":"uint256","internalType":"uint256"}],"stateMutability":"view"},{"type":"function","name":"getCircuitBreakerBounds","inputs":[],"outputs":[{"name":"upper","type":"uint256","internalType":"uint256"},{"name":"lower","type":"uint256","internalType":"uint256"}],"stateMutability":"view"},{"type":"function","name":"getCurrentPrice","inputs":[],"outputs":[{"name":"","type":"uint256","internalType":"uint256"}],"stateMutability":"view"},{"type":"function","name":"getSellQuote","inputs":[{"name":"amount","type":"uint256","internalType":"uint256"}],"outputs":[{"name":"totalReturn","type":"uint256","internalType":"uint256"},{"name":"fee","type":"uint256","internalType":"uint256"}],"stateMutability":"view"},{"type":"function","name":"isApprovedForAll","inputs":[{"name":"account","type":"address","internalType":"address"},{"name":"operator","type":"address","internalType":"address"}],"outputs":[{"name":"","type":"bool","internalType":"bool"}],"stateMutability":"view"},{"type":"function","name":"isSessionActive","inputs":[],"outputs":[{"name":"","type":"bool","internalType":"bool"}],"stateMutability":"view"},{"type":"function","name":"kScaled","inputs":[],"outputs":[{"name":"","type":"uint256","internalType":"uint256"}],"stateMutability":"view"},{"type":"function","name":"marketOpen","inputs":[],"outputs":[{"name":"","type":"bool","internalType":"bool"}],"stateMutability":"view"},{"type":"function","name":"nextOpenTime","inputs":[],"outputs":[{"name":"","type":"uint256","internalType":"uint256"}],"stateMutability":"view"},{"type":"function","name":"openSession","inputs":[],"outputs":[],"stateMutability":"nonpayable"},{"type":"function","name":"oracleAddress","inputs":[],"outputs":[{"name":"","type":"address","internalType":"address"}],"stateMutability":"view"},{"type":"function","name":"safeBatchTransferFrom","inputs":[{"name":"from","type":"address","internalType":"address"},{"name":"to","type":"address","internalType":"address"},{"name":"ids","type":"uint256[]","internalType":"uint256[]"},{"name":"values","type":"uint256[]","internalType":"uint256[]"},{"name":"data","type":"bytes","internalType":"bytes"}],"outputs":[],"stateMutability":"nonpayable"},{"type":"function","name":"safeTransferFrom","inputs":[{"name":"from","type":"address","internalType":"address"},{"name":"to","type":"address","internalType":"address"},{"name":"id","type":"uint256","internalType":"uint256"},{"name":"value","type":"uint256","internalType":"uint256"},{"name":"data","type":"bytes","internalType":"bytes"}],"outputs":[],"stateMutability":"nonpayable"},{"type":"function","name":"sellPass","inputs":[{"name":"amount","type":"uint256","internalType":"uint256"}],"outputs":[],"stateMutability":"nonpayable"},{"type":"function","name":"sessionOpeningPrice","inputs":[],"outputs":[{"name":"","type":"uint256","internalType":"uint256"}],"stateMutability":"view"},{"type":"function","name":"setApprovalForAll","inputs":[{"name":"operator","type":"address","internalType":"address"},{"name":"approved","type":"bool","internalType":"bool"}],"outputs":[],"stateMutability":"nonpayable"},{"type":"function","name":"supportsInterface","inputs":[{"name":"interfaceId","type":"bytes4","internalType":"bytes4"}],"outputs":[{"name":"","type":"bool","internalType":"bool"}],"stateMutability":"view"},{"type":"function","name":"tier","inputs":[],"outputs":[{"name":"","type":"uint8","internalType":"uint8"}],"stateMutability":"view"},{"type":"function","name":"treasuryAddress","inputs":[],"outputs":[{"name":"","type":"address","internalType":"address"}],"stateMutability":"view"},{"type":"function","name":"updateSentimentModifier","inputs":[{"name":"newModifierBps","type":"uint256","internalType":"uint256"}],"outputs":[],"stateMutability":"nonpayable"},{"type":"function","name":"uri","inputs":[{"name":"","type":"uint256","internalType":"uint256"}],"outputs":[{"name":"","type":"string","internalType":"string"}],"stateMutability":"view"},{"type":"function","name":"usdcAddress","inputs":[],"outputs":[{"name":"","type":"address","internalType":"address"}],"stateMutability":"view"},{"type":"event","name":"ApprovalForAll","inputs":[{"name":"account","type":"address","indexed":true,"internalType":"address"},{"name":"operator","type":"address","indexed":true,"internalType":"address"},{"name":"approved","type":"bool","indexed":false,"internalType":"bool"}],"anonymous":false},{"type":"event","name":"CreatorWithdraw","inputs":[{"name":"creator","type":"address","indexed":true,"internalType":"address"},{"name":"amount","type":"uint256","indexed":false,"internalType":"uint256"}],"anonymous":false},{"type":"event","name":"PassBought","inputs":[{"name":"buyer","type":"address","indexed":true,"internalType":"address"},{"name":"amount","type":"uint256","indexed":false,"internalType":"uint256"},{"name":"pricePerToken","type":"uint256","indexed":false,"internalType":"uint256"},{"name":"totalCost","type":"uint256","indexed":false,"internalType":"uint256"},{"name":"newSupply","type":"uint256","indexed":false,"internalType":"uint256"},{"name":"timestamp","type":"uint256","indexed":false,"internalType":"uint256"}],"anonymous":false},{"type":"event","name":"PassSold","inputs":[{"name":"seller","type":"address","indexed":true,"internalType":"address"},{"name":"amount","type":"uint256","indexed":false,"internalType":"uint256"},{"name":"pricePerToken","type":"uint256","indexed":false,"internalType":"uint256"},{"name":"totalReturn","type":"uint256","indexed":false,"internalType":"uint256"},{"name":"newSupply","type":"uint256","indexed":false,"internalType":"uint256"},{"name":"timestamp","type":"uint256","indexed":false,"internalType":"uint256"}],"anonymous":false},{"type":"event","name":"PriceChanged","inputs":[{"name":"creatorId","type":"uint256","indexed":true,"internalType":"uint256"},{"name":"newPrice","type":"uint256","indexed":false,"internalType":"uint256"},{"name":"timestamp","type":"uint256","indexed":false,"internalType":"uint256"}],"anonymous":false},{"type":"event","name":"SentimentUpdated","inputs":[{"name":"newModifierBps","type":"uint256","indexed":false,"internalType":"uint256"},{"name":"timestamp","type":"uint256","indexed":false,"internalType":"uint256"}],"anonymous":false},{"type":"event","name":"TransferBatch","inputs":[{"name":"operator","type":"address","indexed":true,"internalType":"address"},{"name":"from","type":"address","indexed":true,"internalType":"address"},{"name":"to","type":"address","indexed":true,"internalType":"address"},{"name":"ids","type":"uint256[]","indexed":false,"internalType":"uint256[]"},{"name":"values","type":"uint256[]","indexed":false,"internalType":"uint256[]"}],"anonymous":false},{"type":"event","name":"TransferSingle","inputs":[{"name":"operator","type":"address","indexed":true,"internalType":"address"},{"name":"from","type":"address","indexed":true,"internalType":"address"},{"name":"to","type":"address","indexed":true,"internalType":"address"},{"name":"id","type":"uint256","indexed":false,"internalType":"uint256"},{"name":"value","type":"uint256","indexed":false,"internalType":"uint256"}],"anonymous":false},{"type":"event","name":"URI","inputs":[{"name":"value","type":"string","indexed":false,"internalType":"string"},{"name":"id","type":"uint256","indexed":true,"internalType":"uint256"}],"anonymous":false},{"type":"error","name":"ERC1155InsufficientBalance","inputs":[{"name":"sender","type":"address","internalType":"address"},{"name":"balance","type":"uint256","internalType":"uint256"},{"name":"needed","type":"uint256","internalType":"uint256"},{"name":"tokenId","type":"uint256","internalType":"uint256"}]},{"type":"error","name":"ERC1155InvalidApprover","inputs":[{"name":"approver","type":"address","internalType":"address"}]},{"type":"error","name":"ERC1155InvalidArrayLength","inputs":[{"name":"idsLength","type":"uint256","internalType":"uint256"},{"name":"valuesLength","type":"uint256","internalType":"uint256"}]},{"type":"error","name":"ERC1155InvalidOperator","inputs":[{"name":"operator","type":"address","internalType":"address"}]},{"type":"error","name":"ERC1155InvalidReceiver","inputs":[{"name":"receiver","type":"address","internalType":"address"}]},{"type":"error","name":"ERC1155InvalidSender","inputs":[{"name":"sender","type":"address","internalType":"address"}]},{"type":"error","name":"ERC1155MissingApprovalForAll","inputs":[{"name":"operator","type":"address","internalType":"address"},{"name":"owner","type":"address","internalType":"address"}]}],"bytecode":{"object":"0x608060405234801561000f575f5ffd5b506040516143ba3803806143ba833981810160405281019061003191906102b9565b60405180602001604052805f81525061004f816101df60201b60201c565b50886003819055508760045f6101000a81548173ffffffffffffffffffffffffffffffffffffffff021916908373ffffffffffffffffffffffffffffffffffffffff16021790555086600460146101000a81548160ff021916908360ff160217905550856005819055508460068190555083600b60026101000a81548173ffffffffffffffffffffffffffffffffffffffff021916908373ffffffffffffffffffffffffffffffffffffffff16021790555082600c5f6101000a81548173ffffffffffffffffffffffffffffffffffffffff021916908373ffffffffffffffffffffffffffffffffffffffff16021790555081600d5f6101000a81548173ffffffffffffffffffffffffffffffffffffffff021916908373ffffffffffffffffffffffffffffffffffffffff16021790555080600f5f6101000a81548173ffffffffffffffffffffffffffffffffffffffff021916908373ffffffffffffffffffffffffffffffffffffffff16021790555061271060088190555042600e81905550505050505050505050610691565b80600290816101ee91906105c2565b5050565b5f5ffd5b5f819050919050565b610208816101f6565b8114610212575f5ffd5b50565b5f81519050610223816101ff565b92915050565b5f73ffffffffffffffffffffffffffffffffffffffff82169050919050565b5f61025282610229565b9050919050565b61026281610248565b811461026c575f5ffd5b50565b5f8151905061027d81610259565b92915050565b5f60ff82169050919050565b61029881610283565b81146102a2575f5ffd5b50565b5f815190506102b38161028f565b92915050565b5f5f5f5f5f5f5f5f5f6101208a8c0312156102d7576102d66101f2565b5b5f6102e48c828d01610215565b99505060206102f58c828d0161026f565b98505060406103068c828d016102a5565b97505060606103178c828d01610215565b96505060806103288c828d01610215565b95505060a06103398c828d0161026f565b94505060c061034a8c828d0161026f565b93505060e061035b8c828d0161026f565b92505061010061036d8c828d0161026f565b9150509295985092959850929598565b5f81519050919050565b7f4e487b71000000000000000000000000000000000000000000000000000000005f52604160045260245ffd5b7f4e487b71000000000000000000000000000000000000000000000000000000005f52602260045260245ffd5b5f60028204905060018216806103f857607f821691505b60208210810361040b5761040a6103b4565b5b50919050565b5f819050815f5260205f209050919050565b5f6020601f8301049050919050565b5f82821b905092915050565b5f6008830261046d7fffffffffffffffffffffffffffffffffffffffffffffffffffffffffffffffff82610432565b6104778683610432565b95508019841693508086168417925050509392505050565b5f819050919050565b5f6104b26104ad6104a8846101f6565b61048f565b6101f6565b9050919050565b5f819050919050565b6104cb83610498565b6104df6104d7826104b9565b84845461043e565b825550505050565b5f5f905090565b6104f66104e7565b6105018184846104c2565b505050565b5f5b828110156105275761051c5f8284016104ee565b600181019050610508565b505050565b601f82111561057a57828211156105795761054681610411565b61054f83610423565b61055885610423565b6020861015610565575f90505b80830161057482840382610506565b505050505b5b505050565b5f82821c905092915050565b5f61059a5f198460080261057f565b1980831691505092915050565b5f6105b2838361058b565b9150826002028217905092915050565b6105cb8261037d565b67ffffffffffffffff8111156105e4576105e3610387565b5b6105ee82546103e1565b6105f982828561052c565b5f60209050601f83116001811461062a575f8415610618578287015190505b61062285826105a7565b865550610689565b601f19841661063886610411565b5f5b8281101561065f5784890151825560018201915060208501945060208101905061063a565b8683101561067c5784890151610678601f89168261058b565b8355505b6001600288020188555050505b505050505050565b613d1c8061069e5f395ff3fe608060405234801561000f575f5ffd5b5060043610610203575f3560e01c80637cdc65f211610118578063c66bc046116100ab578063e58324ea1161007a578063e58324ea146105aa578063e985e9c5146105c8578063eb91d37e146105f8578063f242432a14610616578063f8635ece1461063257610203565b8063c66bc04614610532578063c7876ea414610550578063cb127b381461056e578063dd22678f1461058c57610203565b8063a22cb465116100e7578063a22cb465146104a9578063a89ae4ba146104c5578063b390452c146104e3578063c5f956af1461051457610203565b80637cdc65f2146104335780637d0fea531461045157806391c839431461046f578063966dae0e1461048b57610203565b80632eb2c2d61161019b5780634e1273f41161016a5780634e1273f4146103a15780634f4ef3ac146103d157806364ec8bdb146103ef5780636bbb379b146103f9578063771282f61461041557610203565b80632eb2c2d61461032c5780633420f9b314610348578063379adba2146103645780633cf6e32d1461038357610203565b806306f4bcbf116101d757806306f4bcbf146102a35780630812530e146102ad5780630e89341c146102de57806316f4d0221461030e57610203565b8062fdd58e1461020757806301ffc9a71461023757806302d4545714610267578063031a65f414610285575b5f5ffd5b610221600480360381019061021c9190612a02565b61063c565b60405161022e9190612a4f565b60405180910390f35b610251600480360381019061024c9190612abd565b610691565b60405161025e9190612b02565b60405180910390f35b61026f610772565b60405161027c9190612b2a565b60405180910390f35b61028d610798565b60405161029a9190612b02565b60405180910390f35b6102ab6107aa565b005b6102c760048036038101906102c29190612b43565b610854565b6040516102d5929190612b6e565b60405180910390f35b6102f860048036038101906102f39190612b43565b6108ce565b6040516103059190612c05565b60405180910390f35b610316610960565b6040516103239190612c40565b60405180910390f35b61034660048036038101906103419190612e49565b610973565b005b610362600480360381019061035d9190612b43565b610998565b005b61036c610e69565b60405161037a929190612b6e565b60405180910390f35b61038b610ead565b6040516103989190612a4f565b60405180910390f35b6103bb60048036038101906103b69190612fd4565b610eb3565b6040516103c89190613101565b60405180910390f35b6103d9610fbd565b6040516103e69190612a4f565b60405180910390f35b6103f7610fc3565b005b610413600480360381019061040e9190612b43565b6111ef565b005b61041d611314565b60405161042a9190612a4f565b60405180910390f35b61043b61131a565b6040516104489190612b2a565b60405180910390f35b61045961133f565b6040516104669190612a4f565b60405180910390f35b61048960048036038101906104849190612b43565b611345565b005b610493611852565b6040516104a09190612b2a565b60405180910390f35b6104c360048036038101906104be919061314b565b611877565b005b6104cd61188d565b6040516104da9190612b2a565b60405180910390f35b6104fd60048036038101906104f89190612b43565b6118b2565b60405161050b929190612b6e565b60405180910390f35b61051c611926565b6040516105299190612b2a565b60405180910390f35b61053a61194b565b6040516105479190612b02565b60405180910390f35b61055861195e565b6040516105659190612a4f565b60405180910390f35b610576611964565b6040516105839190612a4f565b60405180910390f35b61059461196a565b6040516105a19190612a4f565b60405180910390f35b6105b2611970565b6040516105bf9190612a4f565b60405180910390f35b6105e260048036038101906105dd9190613189565b611976565b6040516105ef9190612b02565b60405180910390f35b610600611a04565b60405161060d9190612a4f565b60405180910390f35b610630600480360381019061062b91906131c7565b611a15565b005b61063a611a3a565b005b5f5f5f8381526020019081526020015f205f8473ffffffffffffffffffffffffffffffffffffffff1673ffffffffffffffffffffffffffffffffffffffff1681526020019081526020015f2054905092915050565b5f7fd9b67a26000000000000000000000000000000000000000000000000000000007bffffffffffffffffffffffffffffffffffffffffffffffffffffffff1916827bffffffffffffffffffffffffffffffffffffffffffffffffffffffff1916148061075b57507f0e89341c000000000000000000000000000000000000000000000000000000007bffffffffffffffffffffffffffffffffffffffffffffffffffffffff1916827bffffffffffffffffffffffffffffffffffffffffffffffffffffffff1916145b8061076b575061076a82611b0f565b5b9050919050565b600b60029054906101000a900473ffffffffffffffffffffffffffffffffffffffff1681565b600b5f9054906101000a900460ff1681565b600c5f9054906101000a900473ffffffffffffffffffffffffffffffffffffffff1673ffffffffffffffffffffffffffffffffffffffff163373ffffffffffffffffffffffffffffffffffffffff1614610839576040517f08c379a0000000000000000000000000000000000000000000000000000000008152600401610830906132a4565b60405180910390fd5b5f600b5f6101000a81548160ff021916908315150217905550565b5f5f5f5f90505f600190505b84811161089d5761087d8160075461087891906132ef565b611b78565b826108889190613322565b9150808061089590613355565b915050610860565b506127106064826108ae919061339c565b6108b8919061340a565b915081816108c691906132ef565b925050915091565b6060600280546108dd90613467565b80601f016020809104026020016040519081016040528092919081815260200182805461090990613467565b80156109545780601f1061092b57610100808354040283529160200191610954565b820191905f5260205f20905b81548152906001019060200180831161093757829003601f168201915b50505050509050919050565b600460149054906101000a900460ff1681565b61098461097e611bd2565b86611bd9565b6109918585858585611c64565b5050505050565b5f600f5f9054906101000a900473ffffffffffffffffffffffffffffffffffffffff1673ffffffffffffffffffffffffffffffffffffffff1663d4ce85f36040518163ffffffff1660e01b8152600401602060405180830381865afa158015610a03573d5f5f3e3d5ffd5b505050506040513d601f19601f82011682018060405250810190610a2791906134ab565b905080610a69576040517f08c379a0000000000000000000000000000000000000000000000000000000008152600401610a6090613520565b60405180910390fd5b600b5f9054906101000a900460ff16610ab7576040517f08c379a0000000000000000000000000000000000000000000000000000000008152600401610aae90613588565b60405180910390fd5b5f5f610ac2846118b2565b915091505f8183610ad391906132ef565b90505f610aec86600754610ae79190613322565b611b78565b90505f5f610af8610e69565b91509150818311158015610b0c5750808310155b610b4b576040517f08c379a0000000000000000000000000000000000000000000000000000000008152600401610b42906135f0565b60405180910390fd5b600b60029054906101000a900473ffffffffffffffffffffffffffffffffffffffff1673ffffffffffffffffffffffffffffffffffffffff166323b872dd3330896040518463ffffffff1660e01b8152600401610baa9392919061360e565b6020604051808303815f875af1158015610bc6573d5f5f3e3d5ffd5b505050506040513d601f19601f82011682018060405250810190610bea91906134ab565b610c29576040517f08c379a0000000000000000000000000000000000000000000000000000000008152600401610c209061368d565b60405180910390fd5b5f612710603c86610c3a919061339c565b610c44919061340a565b90505f612710602887610c57919061339c565b610c61919061340a565b90508160095f828254610c749190613322565b92505081905550600b60029054906101000a900473ffffffffffffffffffffffffffffffffffffffff1673ffffffffffffffffffffffffffffffffffffffff1663a9059cbb600d5f9054906101000a900473ffffffffffffffffffffffffffffffffffffffff16836040518363ffffffff1660e01b8152600401610cf99291906136ab565b6020604051808303815f875af1158015610d15573d5f5f3e3d5ffd5b505050506040513d601f19601f82011682018060405250810190610d3991906134ab565b610d78576040517f08c379a0000000000000000000000000000000000000000000000000000000008152600401610d6f9061371c565b60405180910390fd5b8960075f828254610d899190613322565b92505081905550610dab3360018c60405180602001604052805f815250611d5a565b5f5f8b11610db9575f610dc6565b8a87610dc5919061340a565b5b90503373ffffffffffffffffffffffffffffffffffffffff167f59c8a699d3c31e1dcab9fe8eb3e111175b6210f661977a79ef7a3dbdb81ccc028c838c60075442604051610e1895949392919061373a565b60405180910390a26003547f2bce37c591c5b0d254c3056688b080a088f160fff82b6e79f456c8a20d5570f68742604051610e54929190612b6e565b60405180910390a25050505050505050505050565b5f5f612710612af8600a54610e7e919061339c565b610e88919061340a565b9150612710612328600a54610e9d919061339c565b610ea7919061340a565b90509091565b60085481565b60608151835114610eff57815183516040517f5b059991000000000000000000000000000000000000000000000000000000008152600401610ef6929190612b6e565b60405180910390fd5b5f835167ffffffffffffffff811115610f1b57610f1a612c5d565b5b604051908082528060200260200182016040528015610f495781602001602082028036833780820191505090505b5090505f5f90505b8451811015610fb257610f88610f708287611df090919063ffffffff16565b610f838387611e0390919063ffffffff16565b61063c565b828281518110610f9b57610f9a61378b565b5b602002602001018181525050806001019050610f51565b508091505092915050565b60065481565b60045f9054906101000a900473ffffffffffffffffffffffffffffffffffffffff1673ffffffffffffffffffffffffffffffffffffffff163373ffffffffffffffffffffffffffffffffffffffff1614611052576040517f08c379a000000000000000000000000000000000000000000000000000000000815260040161104990613802565b60405180910390fd5b5f60095490505f811161109a576040517f08c379a00000000000000000000000000000000000000000000000000000000081526004016110919061386a565b60405180910390fd5b5f600981905550600b60029054906101000a900473ffffffffffffffffffffffffffffffffffffffff1673ffffffffffffffffffffffffffffffffffffffff1663a9059cbb60045f9054906101000a900473ffffffffffffffffffffffffffffffffffffffff16836040518363ffffffff1660e01b815260040161111f9291906136ab565b6020604051808303815f875af115801561113b573d5f5f3e3d5ffd5b505050506040513d601f19601f8201168201806040525081019061115f91906134ab565b61119e576040517f08c379a00000000000000000000000000000000000000000000000000000000081526004016111959061371c565b60405180910390fd5b3373ffffffffffffffffffffffffffffffffffffffff167f957727802c31109adcff14fcfbd2dc576e9bfd4d6385ddd160fe42832a4555fe826040516111e49190612a4f565b60405180910390a250565b600c5f9054906101000a900473ffffffffffffffffffffffffffffffffffffffff1673ffffffffffffffffffffffffffffffffffffffff163373ffffffffffffffffffffffffffffffffffffffff161461127e576040517f08c379a0000000000000000000000000000000000000000000000000000000008152600401611275906132a4565b60405180910390fd5b61138881101580156112925750613a988111155b6112d1576040517f08c379a00000000000000000000000000000000000000000000000000000000081526004016112c8906138d2565b60405180910390fd5b806008819055507f06e4d61c101146ff35c7f47742a2090ad1625f2a995aa382f064d8cae29848a78142604051611309929190612b6e565b60405180910390a150565b60075481565b60045f9054906101000a900473ffffffffffffffffffffffffffffffffffffffff1681565b600a5481565b5f600f5f9054906101000a900473ffffffffffffffffffffffffffffffffffffffff1673ffffffffffffffffffffffffffffffffffffffff1663d4ce85f36040518163ffffffff1660e01b8152600401602060405180830381865afa1580156113b0573d5f5f3e3d5ffd5b505050506040513d601f19601f820116820180604052508101906113d491906134ab565b905080611416576040517f08c379a000000000000000000000000000000000000000000000000000000000815260040161140d90613520565b60405180910390fd5b600b5f9054906101000a900460ff16611464576040517f08c379a000000000000000000000000000000000000000000000000000000000815260040161145b90613588565b60405180910390fd5b8161147033600161063c565b10156114b1576040517f08c379a00000000000000000000000000000000000000000000000000000000081526004016114a89061393a565b60405180910390fd5b5f5f6114bc84610854565b915091505f81836114cd9190613322565b90505f6114e6866007546114e191906132ef565b611b78565b90505f5f6114f2610e69565b915091508183111580156115065750808310155b611545576040517f08c379a000000000000000000000000000000000000000000000000000000000815260040161153c906135f0565b60405180910390fd5b6115513360018a611e16565b8760075f82825461156291906132ef565b925050819055505f612710603c8661157a919061339c565b611584919061340a565b90505f612710602887611597919061339c565b6115a1919061340a565b90508160095f8282546115b49190613322565b92505081905550600b60029054906101000a900473ffffffffffffffffffffffffffffffffffffffff1673ffffffffffffffffffffffffffffffffffffffff1663a9059cbb600d5f9054906101000a900473ffffffffffffffffffffffffffffffffffffffff16836040518363ffffffff1660e01b81526004016116399291906136ab565b6020604051808303815f875af1158015611655573d5f5f3e3d5ffd5b505050506040513d601f19601f8201168201806040525081019061167991906134ab565b6116b8576040517f08c379a00000000000000000000000000000000000000000000000000000000081526004016116af906139a2565b60405180910390fd5b600b60029054906101000a900473ffffffffffffffffffffffffffffffffffffffff1673ffffffffffffffffffffffffffffffffffffffff1663a9059cbb338a6040518363ffffffff1660e01b81526004016117159291906136ab565b6020604051808303815f875af1158015611731573d5f5f3e3d5ffd5b505050506040513d601f19601f8201168201806040525081019061175591906134ab565b611794576040517f08c379a000000000000000000000000000000000000000000000000000000000815260040161178b90613a0a565b60405180910390fd5b5f5f8b116117a2575f6117af565b8a876117ae919061340a565b5b90503373ffffffffffffffffffffffffffffffffffffffff167f3dd54a5709435aef3e04474392d96e3a1a8f500137578186c7d46909892722938c838c6007544260405161180195949392919061373a565b60405180910390a26003547f2bce37c591c5b0d254c3056688b080a088f160fff82b6e79f456c8a20d5570f6874260405161183d929190612b6e565b60405180910390a25050505050505050505050565b600f5f9054906101000a900473ffffffffffffffffffffffffffffffffffffffff1681565b611889611882611bd2565b8383611eb9565b5050565b600c5f9054906101000a900473ffffffffffffffffffffffffffffffffffffffff1681565b5f5f5f5f90505f5f90505b848110156118f5576118db816007546118d69190613322565b611b78565b826118e69190613322565b915080806001019150506118bd565b50612710606482611906919061339c565b611910919061340a565b9150818161191e9190613322565b925050915091565b600d5f9054906101000a900473ffffffffffffffffffffffffffffffffffffffff1681565b600b60019054906101000a900460ff1681565b60055481565b600e5481565b60095481565b60035481565b5f60015f8473ffffffffffffffffffffffffffffffffffffffff1673ffffffffffffffffffffffffffffffffffffffff1681526020019081526020015f205f8373ffffffffffffffffffffffffffffffffffffffff1673ffffffffffffffffffffffffffffffffffffffff1681526020019081526020015f205f9054906101000a900460ff16905092915050565b5f611a10600754611b78565b905090565b611a26611a20611bd2565b86611bd9565b611a338585858585612092565b5050505050565b600e54421015611a7f576040517f08c379a0000000000000000000000000000000000000000000000000000000008152600401611a7690613a72565b60405180910390fd5b600b5f9054906101000a900460ff1615611ace576040517f08c379a0000000000000000000000000000000000000000000000000000000008152600401611ac590613ada565b60405180910390fd5b611ad9600754611b78565b600a819055506001600b5f6101000a81548160ff02191690831515021790555061708042611b079190613322565b600e81905550565b5f7f01ffc9a7000000000000000000000000000000000000000000000000000000007bffffffffffffffffffffffffffffffffffffffffffffffffffffffff1916827bffffffffffffffffffffffffffffffffffffffffffffffffffffffff1916149050919050565b5f5f6103e88384600654611b8c919061339c565b611b96919061339c565b611ba0919061340a565b905061271060085460055483611bb69190613322565b611bc0919061339c565b611bca919061340a565b915050919050565b5f33905090565b8173ffffffffffffffffffffffffffffffffffffffff168173ffffffffffffffffffffffffffffffffffffffff1614158015611c1c5750611c1a8183611976565b155b15611c605781816040517fe237d922000000000000000000000000000000000000000000000000000000008152600401611c57929190613af8565b60405180910390fd5b5050565b5f73ffffffffffffffffffffffffffffffffffffffff168473ffffffffffffffffffffffffffffffffffffffff1603611cd4575f6040517f57f447ce000000000000000000000000000000000000000000000000000000008152600401611ccb9190612b2a565b60405180910390fd5b5f73ffffffffffffffffffffffffffffffffffffffff168573ffffffffffffffffffffffffffffffffffffffff1603611d44575f6040517f01a83514000000000000000000000000000000000000000000000000000000008152600401611d3b9190612b2a565b60405180910390fd5b611d5385858585856001612199565b5050505050565b5f73ffffffffffffffffffffffffffffffffffffffff168473ffffffffffffffffffffffffffffffffffffffff1603611dca575f6040517f57f447ce000000000000000000000000000000000000000000000000000000008152600401611dc19190612b2a565b60405180910390fd5b5f5f611dd68585612243565b91509150611de85f878484875f612199565b505050505050565b5f60208202602084010151905092915050565b5f60208202602084010151905092915050565b5f73ffffffffffffffffffffffffffffffffffffffff168373ffffffffffffffffffffffffffffffffffffffff1603611e86575f6040517f01a83514000000000000000000000000000000000000000000000000000000008152600401611e7d9190612b2a565b60405180910390fd5b5f5f611e928484612243565b91509150611eb2855f848460405180602001604052805f8152505f612199565b5050505050565b5f73ffffffffffffffffffffffffffffffffffffffff168373ffffffffffffffffffffffffffffffffffffffff1603611f29575f6040517f3e31884e000000000000000000000000000000000000000000000000000000008152600401611f209190612b2a565b60405180910390fd5b5f73ffffffffffffffffffffffffffffffffffffffff168273ffffffffffffffffffffffffffffffffffffffff1603611f99575f6040517fced3e100000000000000000000000000000000000000000000000000000000008152600401611f909190612b2a565b60405180910390fd5b8060015f8573ffffffffffffffffffffffffffffffffffffffff1673ffffffffffffffffffffffffffffffffffffffff1681526020019081526020015f205f8473ffffffffffffffffffffffffffffffffffffffff1673ffffffffffffffffffffffffffffffffffffffff1681526020019081526020015f205f6101000a81548160ff0219169083151502179055508173ffffffffffffffffffffffffffffffffffffffff168373ffffffffffffffffffffffffffffffffffffffff167f17307eab39ab6107e8899845ad3d59bd9653f200f220920489ca2b5937696c31836040516120859190612b02565b60405180910390a3505050565b5f73ffffffffffffffffffffffffffffffffffffffff168473ffffffffffffffffffffffffffffffffffffffff1603612102575f6040517f57f447ce0000000000000000000000000000000000000000000000000000000081526004016120f99190612b2a565b60405180910390fd5b5f73ffffffffffffffffffffffffffffffffffffffff168573ffffffffffffffffffffffffffffffffffffffff1603612172575f6040517f01a835140000000000000000000000000000000000000000000000000000000081526004016121699190612b2a565b60405180910390fd5b5f5f61217e8585612243565b9150915061219087878484875f612199565b50505050505050565b6121a586868686612273565b5f73ffffffffffffffffffffffffffffffffffffffff168573ffffffffffffffffffffffffffffffffffffffff161461223b575f6121e1611bd2565b905081156121fc576121f7818888888888612606565b612239565b5f6122105f87611e0390919063ffffffff16565b90505f6122265f87611e0390919063ffffffff16565b9050612236838a8a85858a6127b5565b50505b505b505050505050565b60608060405191506001825283602083015260408201905060018152826020820152604081016040529250929050565b80518251146122bd57815181516040517f5b0599910000000000000000000000000000000000000000000000000000000081526004016122b4929190612b6e565b60405180910390fd5b5f6122c6611bd2565b90505f5f90505b83518110156124c5575f6122ea8286611e0390919063ffffffff16565b90505f6123008386611e0390919063ffffffff16565b90505f73ffffffffffffffffffffffffffffffffffffffff168873ffffffffffffffffffffffffffffffffffffffff1614612423575f5f5f8481526020019081526020015f205f8a73ffffffffffffffffffffffffffffffffffffffff1673ffffffffffffffffffffffffffffffffffffffff1681526020019081526020015f20549050818110156123cf57888183856040517f03dee4c50000000000000000000000000000000000000000000000000000000081526004016123c69493929190613b1f565b60405180910390fd5b8181035f5f8581526020019081526020015f205f8b73ffffffffffffffffffffffffffffffffffffffff1673ffffffffffffffffffffffffffffffffffffffff1681526020019081526020015f2081905550505b5f73ffffffffffffffffffffffffffffffffffffffff168773ffffffffffffffffffffffffffffffffffffffff16146124b857805f5f8481526020019081526020015f205f8973ffffffffffffffffffffffffffffffffffffffff1673ffffffffffffffffffffffffffffffffffffffff1681526020019081526020015f205f8282546124b09190613322565b925050819055505b50508060010190506122cd565b506001835103612580575f6124e35f85611e0390919063ffffffff16565b90505f6124f95f85611e0390919063ffffffff16565b90508573ffffffffffffffffffffffffffffffffffffffff168773ffffffffffffffffffffffffffffffffffffffff168473ffffffffffffffffffffffffffffffffffffffff167fc3d58168c5ae7397731d063d5bbf3d657854427343f4c083240f7aacaa2d0f628585604051612571929190612b6e565b60405180910390a450506125ff565b8373ffffffffffffffffffffffffffffffffffffffff168573ffffffffffffffffffffffffffffffffffffffff168273ffffffffffffffffffffffffffffffffffffffff167f4a39dc06d4c0dbc64b70af90fd698a233a518aa5d07e595d983b8c0526c8f7fb86866040516125f6929190613b62565b60405180910390a45b5050505050565b5f8473ffffffffffffffffffffffffffffffffffffffff163b11156127ad578373ffffffffffffffffffffffffffffffffffffffff1663bc197c8187878686866040518663ffffffff1660e01b8152600401612666959493929190613be9565b6020604051808303815f875af19250505080156126a157506040513d601f19601f8201168201806040525081019061269e9190613c63565b60015b612722573d805f81146126cf576040519150601f19603f3d011682016040523d82523d5f602084013e6126d4565b606091505b505f81510361271a57846040517f57f447ce0000000000000000000000000000000000000000000000000000000081526004016127119190612b2a565b60405180910390fd5b805160208201fd5b63bc197c8160e01b7bffffffffffffffffffffffffffffffffffffffffffffffffffffffff1916817bffffffffffffffffffffffffffffffffffffffffffffffffffffffff1916146127ab57846040517f57f447ce0000000000000000000000000000000000000000000000000000000081526004016127a29190612b2a565b60405180910390fd5b505b505050505050565b5f8473ffffffffffffffffffffffffffffffffffffffff163b111561295c578373ffffffffffffffffffffffffffffffffffffffff1663f23a6e6187878686866040518663ffffffff1660e01b8152600401612815959493929190613c8e565b6020604051808303815f875af192505050801561285057506040513d601f19601f8201168201806040525081019061284d9190613c63565b60015b6128d1573d805f811461287e576040519150601f19603f3d011682016040523d82523d5f602084013e612883565b606091505b505f8151036128c957846040517f57f447ce0000000000000000000000000000000000000000000000000000000081526004016128c09190612b2a565b60405180910390fd5b805160208201fd5b63f23a6e6160e01b7bffffffffffffffffffffffffffffffffffffffffffffffffffffffff1916817bffffffffffffffffffffffffffffffffffffffffffffffffffffffff19161461295a57846040517f57f447ce0000000000000000000000000000000000000000000000000000000081526004016129519190612b2a565b60405180910390fd5b505b505050505050565b5f604051905090565b5f5ffd5b5f5ffd5b5f73ffffffffffffffffffffffffffffffffffffffff82169050919050565b5f61299e82612975565b9050919050565b6129ae81612994565b81146129b8575f5ffd5b50565b5f813590506129c9816129a5565b92915050565b5f819050919050565b6129e1816129cf565b81146129eb575f5ffd5b50565b5f813590506129fc816129d8565b92915050565b5f5f60408385031215612a1857612a1761296d565b5b5f612a25858286016129bb565b9250506020612a36858286016129ee565b9150509250929050565b612a49816129cf565b82525050565b5f602082019050612a625f830184612a40565b92915050565b5f7fffffffff0000000000000000000000000000000000000000000000000000000082169050919050565b612a9c81612a68565b8114612aa6575f5ffd5b50565b5f81359050612ab781612a93565b92915050565b5f60208284031215612ad257612ad161296d565b5b5f612adf84828501612aa9565b91505092915050565b5f8115159050919050565b612afc81612ae8565b82525050565b5f602082019050612b155f830184612af3565b92915050565b612b2481612994565b82525050565b5f602082019050612b3d5f830184612b1b565b92915050565b5f60208284031215612b5857612b5761296d565b5b5f612b65848285016129ee565b91505092915050565b5f604082019050612b815f830185612a40565b612b8e6020830184612a40565b9392505050565b5f81519050919050565b5f82825260208201905092915050565b8281835e5f83830152505050565b5f601f19601f8301169050919050565b5f612bd782612b95565b612be18185612b9f565b9350612bf1818560208601612baf565b612bfa81612bbd565b840191505092915050565b5f6020820190508181035f830152612c1d8184612bcd565b905092915050565b5f60ff82169050919050565b612c3a81612c25565b82525050565b5f602082019050612c535f830184612c31565b92915050565b5f5ffd5b7f4e487b71000000000000000000000000000000000000000000000000000000005f52604160045260245ffd5b612c9382612bbd565b810181811067ffffffffffffffff82111715612cb257612cb1612c5d565b5b80604052505050565b5f612cc4612964565b9050612cd08282612c8a565b919050565b5f67ffffffffffffffff821115612cef57612cee612c5d565b5b602082029050602081019050919050565b5f5ffd5b5f612d16612d1184612cd5565b612cbb565b90508083825260208201905060208402830185811115612d3957612d38612d00565b5b835b81811015612d625780612d4e88826129ee565b845260208401935050602081019050612d3b565b5050509392505050565b5f82601f830112612d8057612d7f612c59565b5b8135612d90848260208601612d04565b91505092915050565b5f5ffd5b5f67ffffffffffffffff821115612db757612db6612c5d565b5b612dc082612bbd565b9050602081019050919050565b828183375f83830152505050565b5f612ded612de884612d9d565b612cbb565b905082815260208101848484011115612e0957612e08612d99565b5b612e14848285612dcd565b509392505050565b5f82601f830112612e3057612e2f612c59565b5b8135612e40848260208601612ddb565b91505092915050565b5f5f5f5f5f60a08688031215612e6257612e6161296d565b5b5f612e6f888289016129bb565b9550506020612e80888289016129bb565b945050604086013567ffffffffffffffff811115612ea157612ea0612971565b5b612ead88828901612d6c565b935050606086013567ffffffffffffffff811115612ece57612ecd612971565b5b612eda88828901612d6c565b925050608086013567ffffffffffffffff811115612efb57612efa612971565b5b612f0788828901612e1c565b9150509295509295909350565b5f67ffffffffffffffff821115612f2e57612f2d612c5d565b5b602082029050602081019050919050565b5f612f51612f4c84612f14565b612cbb565b90508083825260208201905060208402830185811115612f7457612f73612d00565b5b835b81811015612f9d5780612f8988826129bb565b845260208401935050602081019050612f76565b5050509392505050565b5f82601f830112612fbb57612fba612c59565b5b8135612fcb848260208601612f3f565b91505092915050565b5f5f60408385031215612fea57612fe961296d565b5b5f83013567ffffffffffffffff81111561300757613006612971565b5b61301385828601612fa7565b925050602083013567ffffffffffffffff81111561303457613033612971565b5b61304085828601612d6c565b9150509250929050565b5f81519050919050565b5f82825260208201905092915050565b5f819050602082019050919050565b61307c816129cf565b82525050565b5f61308d8383613073565b60208301905092915050565b5f602082019050919050565b5f6130af8261304a565b6130b98185613054565b93506130c483613064565b805f5b838110156130f45781516130db8882613082565b97506130e683613099565b9250506001810190506130c7565b5085935050505092915050565b5f6020820190508181035f83015261311981846130a5565b905092915050565b61312a81612ae8565b8114613134575f5ffd5b50565b5f8135905061314581613121565b92915050565b5f5f604083850312156131615761316061296d565b5b5f61316e858286016129bb565b925050602061317f85828601613137565b9150509250929050565b5f5f6040838503121561319f5761319e61296d565b5b5f6131ac858286016129bb565b92505060206131bd858286016129bb565b9150509250929050565b5f5f5f5f5f60a086880312156131e0576131df61296d565b5b5f6131ed888289016129bb565b95505060206131fe888289016129bb565b945050604061320f888289016129ee565b9350506060613220888289016129ee565b925050608086013567ffffffffffffffff81111561324157613240612971565b5b61324d88828901612e1c565b9150509295509295909350565b7f4e6f74206f7261636c65000000000000000000000000000000000000000000005f82015250565b5f61328e600a83612b9f565b91506132998261325a565b602082019050919050565b5f6020820190508181035f8301526132bb81613282565b9050919050565b7f4e487b71000000000000000000000000000000000000000000000000000000005f52601160045260245ffd5b5f6132f9826129cf565b9150613304836129cf565b925082820390508181111561331c5761331b6132c2565b5b92915050565b5f61332c826129cf565b9150613337836129cf565b925082820190508082111561334f5761334e6132c2565b5b92915050565b5f61335f826129cf565b91507fffffffffffffffffffffffffffffffffffffffffffffffffffffffffffffffff8203613391576133906132c2565b5b600182019050919050565b5f6133a6826129cf565b91506133b1836129cf565b92508282026133bf816129cf565b915082820484148315176133d6576133d56132c2565b5b5092915050565b7f4e487b71000000000000000000000000000000000000000000000000000000005f52601260045260245ffd5b5f613414826129cf565b915061341f836129cf565b92508261342f5761342e6133dd565b5b828204905092915050565b7f4e487b71000000000000000000000000000000000000000000000000000000005f52602260045260245ffd5b5f600282049050600182168061347e57607f821691505b6020821081036134915761349061343a565b5b50919050565b5f815190506134a581613121565b92915050565b5f602082840312156134c0576134bf61296d565b5b5f6134cd84828501613497565b91505092915050565b7f4d61726b65743a20636c6f7365640000000000000000000000000000000000005f82015250565b5f61350a600e83612b9f565b9150613515826134d6565b602082019050919050565b5f6020820190508181035f830152613537816134fe565b9050919050565b7f53657373696f6e3a206e6f7420616374697665000000000000000000000000005f82015250565b5f613572601383612b9f565b915061357d8261353e565b602082019050919050565b5f6020820190508181035f83015261359f81613566565b9050919050565b7f43697263756974427265616b65723a20626f756e6473206578636565646564005f82015250565b5f6135da601f83612b9f565b91506135e5826135a6565b602082019050919050565b5f6020820190508181035f830152613607816135ce565b9050919050565b5f6060820190506136215f830186612b1b565b61362e6020830185612b1b565b61363b6040830184612a40565b949350505050565b7f55534443207472616e7366657246726f6d206661696c656400000000000000005f82015250565b5f613677601883612b9f565b915061368282613643565b602082019050919050565b5f6020820190508181035f8301526136a48161366b565b9050919050565b5f6040820190506136be5f830185612b1b565b6136cb6020830184612a40565b9392505050565b7f55534443207472616e73666572206661696c65640000000000000000000000005f82015250565b5f613706601483612b9f565b9150613711826136d2565b602082019050919050565b5f6020820190508181035f830152613733816136fa565b9050919050565b5f60a08201905061374d5f830188612a40565b61375a6020830187612a40565b6137676040830186612a40565b6137746060830185612a40565b6137816080830184612a40565b9695505050505050565b7f4e487b71000000000000000000000000000000000000000000000000000000005f52603260045260245ffd5b7f4e6f742063726561746f720000000000000000000000000000000000000000005f82015250565b5f6137ec600b83612b9f565b91506137f7826137b8565b602082019050919050565b5f6020820190508181035f830152613819816137e0565b9050919050565b7f4e6f2062616c616e636520746f207769746864726177000000000000000000005f82015250565b5f613854601683612b9f565b915061385f82613820565b602082019050919050565b5f6020820190508181035f83015261388181613848565b9050919050565b7f4d6f646966696572206f7574206f6620626f756e6473000000000000000000005f82015250565b5f6138bc601683612b9f565b91506138c782613888565b602082019050919050565b5f6020820190508181035f8301526138e9816138b0565b9050919050565b7f496e73756666696369656e742062616c616e63650000000000000000000000005f82015250565b5f613924601483612b9f565b915061392f826138f0565b602082019050919050565b5f6020820190508181035f83015261395181613918565b9050919050565b7f55534443207472616e7366657220746f207472656173757279206661696c65645f82015250565b5f61398c602083612b9f565b915061399782613958565b602082019050919050565b5f6020820190508181035f8301526139b981613980565b9050919050565b7f55534443207472616e7366657220746f2073656c6c6572206661696c656400005f82015250565b5f6139f4601e83612b9f565b91506139ff826139c0565b602082019050919050565b5f6020820190508181035f830152613a21816139e8565b9050919050565b7f546f6f206561726c7920746f206f70656e2073657373696f6e000000000000005f82015250565b5f613a5c601983612b9f565b9150613a6782613a28565b602082019050919050565b5f6020820190508181035f830152613a8981613a50565b9050919050565b7f53657373696f6e20616c726561647920616374697665000000000000000000005f82015250565b5f613ac4601683612b9f565b9150613acf82613a90565b602082019050919050565b5f6020820190508181035f830152613af181613ab8565b9050919050565b5f604082019050613b0b5f830185612b1b565b613b186020830184612b1b565b9392505050565b5f608082019050613b325f830187612b1b565b613b3f6020830186612a40565b613b4c6040830185612a40565b613b596060830184612a40565b95945050505050565b5f6040820190508181035f830152613b7a81856130a5565b90508181036020830152613b8e81846130a5565b90509392505050565b5f81519050919050565b5f82825260208201905092915050565b5f613bbb82613b97565b613bc58185613ba1565b9350613bd5818560208601612baf565b613bde81612bbd565b840191505092915050565b5f60a082019050613bfc5f830188612b1b565b613c096020830187612b1b565b8181036040830152613c1b81866130a5565b90508181036060830152613c2f81856130a5565b90508181036080830152613c438184613bb1565b90509695505050505050565b5f81519050613c5d81612a93565b92915050565b5f60208284031215613c7857613c7761296d565b5b5f613c8584828501613c4f565b91505092915050565b5f60a082019050613ca15f830188612b1b565b613cae6020830187612b1b565b613cbb6040830186612a40565b613cc86060830185612a40565b8181036080830152613cda8184613bb1565b9050969550505050505056fea264697066735822122099fad4aca30f0bcac342057cebd64a8ecad1f605f7eba0daf1dd70ffd8a73dce64736f6c63430008230033","linkReferences":{}},"methodIdentifiers":{"aiModifierBps()":"3cf6e32d","balanceOf(address,uint256)":"00fdd58e","balanceOfBatch(address[],uint256[])":"4e1273f4","basePrice()":"c7876ea4","buyPass(uint256)":"3420f9b3","closeSession()":"06f4bcbf","creatorFeeBalance()":"dd22678f","creatorId()":"e58324ea","creatorWallet()":"7cdc65f2","creatorWithdraw()":"64ec8bdb","currentSupply()":"771282f6","factoryAddress()":"966dae0e","getBuyQuote(uint256)":"b390452c","getCircuitBreakerBounds()":"379adba2","getCurrentPrice()":"eb91d37e","getSellQuote(uint256)":"0812530e","isApprovedForAll(address,address)":"e985e9c5","isSessionActive()":"031a65f4","kScaled()":"4f4ef3ac","marketOpen()":"c66bc046","nextOpenTime()":"cb127b38","openSession()":"f8635ece","oracleAddress()":"a89ae4ba","safeBatchTransferFrom(address,address,uint256[],uint256[],bytes)":"2eb2c2d6","safeTransferFrom(address,address,uint256,uint256,bytes)":"f242432a","sellPass(uint256)":"91c83943","sessionOpeningPrice()":"7d0fea53","setApprovalForAll(address,bool)":"a22cb465","supportsInterface(bytes4)":"01ffc9a7","tier()":"16f4d022","treasuryAddress()":"c5f956af","updateSentimentModifier(uint256)":"6bbb379b","uri(uint256)":"0e89341c","usdcAddress()":"02d45457"},"id":38}